:020000040000FA
:200000000203370218034100C4002202180B222222FFFF021813E4FFA10EFF02181B75C8A7
:200020000122FF021823FFFFFFFFFF02182BFFFFFFFFFF021833FFFFFFFFFF02183BFFFF8B
:20004000FFFFFF021843FFFFFFFFFF02184BFFFFFFFFFF021853FFFFFFFFFF02185BFFFF10
:20006000FFFFFF021863FFFFFFFFFF02186BFFFFFFFFFF021873BB010689828A83E02250D2
:2000800002E722BBFE02E32289828A83E49322BB010CE58229F582E5833AF583E0225006A3
:2000A000E92582F8E622BBFE06E92582F8E222E58229F582E5833AF583E49322BB01068960
:2000C000828A83F0225002F722BBFE01F322F8BB010DE58229F582E5833AF583E8F0225019
:2000E00006E92582C8F622BBFE05E92582C8F222C5F0F8A3E028F0C5F0F8E58215827002FB
:200100001583E038F022A3F8E0C5F025F0F0E582158270021583E0C838F0E822BB010A89B7
:20012000828A83E0F5F0A3E022500687F009E71922BBFE07E3F5F009E3192289828A83E423
:2001400093F5F074019322BB010A89828A83F0E5F0A3F0225006F709A7F01922BBFE06F3CB
:20016000E5F009F31922EF2BFFEE3AFEED39FDEC38FC22C3EF9BFFEE9AFEED99FDEC98FCFA
:200180002275F008758200EF2FFFEE33FECD33CDCC33CCC58233C5829BED9AEC99E582989E
:2001A000400CF582EE9BFEED9AFDEC99FC0FD5F0D6E4CEFBE4CDFAE4CCF9A88222B800C180
:2001C000B90059BA002DEC8BF084CFCECDFCE5F0CBF97818EF2FFFEE33FEED33FDEC33FC38
:2001E000EB33FB10D703994004EB99FB0FD8E5E4F9FA227818EF2FFFEE33FEED33FDEC33D3
:20020000FCC933C910D7059BE99A4007EC9BFCE99AF90FD8E0E4C9FAE4CCFB2275F010EF2E
:200220002FFFEE33FEED33FDCC33CCC833C810D7079BEC9AE899400AED9BFDEC9AFCE89964
:20024000F80FD5F0DAE4CDFBE4CCFAE4C8F922EF5BFFEE5AFEED59FDEC58FC22EB9FF5F038
:20026000EA9E42F0E99D42F0E89C45F022E8600FECC313FCED13FDEE13FEEF13FFD8F12234
:20028000E8600FEFC333FFEE33FEED33FDEC33FCD8F122E0FCA3E0FDA3E0FEA3E0FF22E080
:2002A000F8A3E0F9A3E0FAA3E0FB22ECF0A3EDF0A3EEF0A3EFF022A8828583F0D083D08265
:2002C0001202CE1202CE1202CE1202CEE473E493A3C583C5F0C583C8C582C8F0A3C583C569
:2002E000F0C583C8C582C822E0FBA3E0FAA3E0F922F8E0FBA3A3E0F925F0F0E58215827072
:20030000021583E0FA38F022EBF0A3EAF0A3E9F022D083D082F8E4937012740193700DA36B
:20032000A393F8740193F5828883E4737402936860EFA3A3A380DF75814B020B1A0436FF05
:20034000FEFFFF7F01B10E9000BCE07111036904037114037615037B17038B300390340311
:200360009536039A37000003835346EF854680802F5347EF80085347DF800353477F8547E4
:2003800090801D5348DF8548A080155349FE800D5349EF80085349BF800353497F8549B003
:2003A0007F0CDFFE2271477FD791487FFF914871BA9000B7EFF07FFF9148E5C820E2FBAF74
:2003C000EB227F01B10E9009277401F0900927E0603391DD71B6900927EFF0B12671A590C8
:2003E00000B8EFF0B126900927E05401F09000B7E0FFF460D7A3E0F460D2EF30E7CEE49068
:200400000927F080C771477F9F914871B69000B971B49000BE71B49000BFEFF0B10A900045
:20042000B7E0F4601BA3E0F460169000BEE0FD541F240FA3F0EDC413540744809000BEF044
:200440002251937808516DE4E5C820E2FB8FEB227F01B10E30021491DD71B6900929EFF073
:20046000B126900929E020E002C20230021C71A59000B8EFF09000B7E0FFF4600BA3E0F4B6
:200480006006EF30E702C202B126E4FFB10EA202E433FF2290090C51AB90090C5193B1AA50
:2004A000900910E06F6034110A9150EF6004110E80F7B11A71479000BAE0FF91EB600990AA
:2004C000090C51937810914590090C914190090C91F4900910E0FFB108D322C32271477FD2
:2004E0000581487F01B10E71477F0391489000BDE06402225193E48148E4FCFDA1AAFFFF70
:20050000FFFFFFFFFFFFFFFF9148B126E4FFEFB4010443FE202253FEDF227F01B10ED202C0
:2005200071477F069148F1F3EF70FB9000BEE0F4600F9009267406F0900926E014F0E070BA
:20054000F79000BCE07111056304056B14057015057517058530058A34058F3605943700D4
:2005600000057D434610854680802F43471080084347208003434780854790801D43482069
:200580008548A08015434901800D434910800843494080034349808549B0900926740CF013
:2005A000900926E014F0E070F72290090751AB110A9150EF6004110E80F791E36009900938
:2005C00007519378109145900907914190090791F471B690090BEFF0B10A90090BE0FF2231
:2005E0009000D151AB9000D57108110A9150EF6004110E80F7B11A71479000BAE0FF91EBB3
:2006000060099000D15193781091459000D191419000D15193E4801B9000D8D1C2601890D4
:2006200000D551E8EA494B60089000D51214548001E4FF914880E1B126E4FFA10E110A9134
:2006400050EF6004110E80F7B11A71477F0191487F039148B126E4FFA10E9000DA51AB90CB
:2006600000DE7108110A9150EF6004110E80F791E360099000DA5193781091459000DA91BA
:20068000419000DA91F49000E1D1C2601571B69000DE51E8EF11BC9000DFE475F00111F06D
:2006A00080E4B126E4FFA10E9000B7E020E01271437F3D91487F2A91487F8091487FA6B1BB
:2006C000082274FFF5F0310645F022900928EFF09000C5E0640270227143900928E07FABBE
:2006E00060027FB99148B126900928E09000C4F070047F1EDFFEE4FFB10E229000C651ABC7
:200700009000CA71081214269000CD1210F69000C651931210595002E1C49000C1E024FF45
:20072000FF9000C0E034FFFEE4FCFD9000C6519F514F9000CFEEF0A3EFF04E603BF1C6C374
:200740009000C1E09FFF9000C0E09EFE9000CFF0A3EFF09000CDE0FCA3E0FDD39FEC9E5028
:2007600006A3ECF0A3EDF01213E1E94A6004F1C680467E007F0080409000CDE0FEA3E0FFE0
:200780004E603F9000C0E0FCA3E0FDD3EF9DEE9C400A9000CFECF0A3EDF0800D9000CDE008
:2007A000FFA3E0A3CFF0A3EFF01213E1E94A6004F1C680047E007F009000CBEE8FF011F035
:2007C00080B6D322C3229000CFE0FEA3E0FF22110A9150EF6004110E80F7229000B9E011E7
:2007E000BC9000BEE090000111CE9000BFE090000201CEE5C85404FF227B017A0079BC7F3F
:2008000003120A1A7A0079C57F08120A1A7A0079C27D027F0931B77B017A0079C07D027F59
:200820000B31B79000C0E0FEA3E0FF4E6006BEFF1CBFFF199000C5E024FD6003047005512E
:2008400029F080099000C0E4F0A37440F09000C5E024FD60030470089000BD7403F080061C
:200860009000BD7402F09000BCE0120311088904089414089C1508A41708BA3008C23408BA
:20088000CA3608D237000008AF75FF015342EF8542FD804775FF015343EF800E75FF0153BC
:2008A00043DF800675FF0153437F8543C9802C75FF015344DF8544CA802175FF015345FE9F
:2008C000801675FF015345EF800E75FF015345BF800675FF0153457F8545CB1205267F11B8
:2008E0005114E4FF1206CB1203C29000BA7402F09000BEE0247F60090470175121740A8011
:20090000071206A851217458F09000BD7403F05129F09000BFE0F4600221B49000C2E0FE3A
:20092000A3E0FF64104E70069000BF740EF0EF64204E70069000BF740FF0EF64404E7006EC
:200940009000BF7410F0EF64804E70069000BF7411F0E4B5070AEEB401069000BF7412F061
:20096000E4B5070AEEB402069000BF7413F0E4B5070AEEB404069000BF7414F0E4B5070A96
:20098000EEB408069000BF7415F0E4B5070AEEB410069000BF7416F0E4B5070AEEB4200642
:2009A0009000BF7417F0E4B5070AEEB440069000BF7418F002063D900911EFF0A3EDF0A31F
:2009C000120308900912E0604A901215E06012900911E02410FF51329009131202E8EF8065
:2009E00017900911E0640190091370071202E8748080051202E874FF1200BC900914E47516
:200A0000F0011200F0900912E014F0900911E004F080B022EF4420F5FE227D0131B77B013A
:200A2000227F1051149000BA229000C07401F0A3E42275FF03E4F59712131AE59720E1FB38
:200A400075FF03AF992290091B7410F090091BE0FFD3947F503C513290091CEFF090091BBD
:200A6000E0B410067E1D7F0F800890091DE0FEA3E0FF7B017A09791C9000E8E4F0A304F08E
:200A800051B290091DEEF0A3EFF090091BE004F080BA90091DE07002A3E07F0070027F017F
:200AA000901215EFF024FF22E0FD9000E8E4F0A3EDF09000E3EEF0A3EFF0A312030890008F
:200AC000E81206C2604B9000E51214549000EAF07D80ED60E97111EE7C0030E7027C01900B
:200AE00000EAE05D7B0060027B01EB6CFCEF25E0FFEE339000E3F0A3EFF0AF04EF600C908C
:200B000000E3E06410F0A3E06421F0EDC313FD80C19000E3E0FEA3E0FF2275FF03759E0234
:200B200090033DE493F53C75FF02E5E654036002C1C2753CDE753DAD753EBE753FEFC2AF4D
:200B400075FF0275E404F5E47546FF7547FF7548FF7549FF7542FF7543FF7544FF7545FF1D
:200B600075FF0253E6BF51461207F9121128EF64016002C1B990180893FE740193FF90000B
:200B8000ADEEF0A3EFF0F5828E83E493F540740193F541740293F54A740393F54B74049339
:200BA000F530740593F531740693F532740793F533C201EF4E70028199EFF4FFEEF44F7065
:200BC000028199E540454AFEE541454BFFE5304EFEE5314FFFE5324EFEE5334F4E700281C2
:200BE00099E54BF4FFE54AF4FEE541F4FDE540F44EFEED4FFFE531F4FDE530F44EFEEF4DC9
:200C0000FFE533F4FDE532F44EFEEF4D4E700281997F03D1C5E53324FFFFE532F1EA6403B4
:200C200070227F02D1C5E53124FFFFE530F1EAB402127F01D1C5E54B24FFFFE54AF1EAB4F5
:200C40000102D2012001527F01D1C5F1FDE54AF0A3E54BF07F0F7E1DD1F17F02F1F3E53000
:200C6000F0E531D1EF7F03F1F3E532F0E533D1EF7F01D1C5900922E0FEA3E0FF7BFF7A182C
:200C80007900E425419000E9F0E54034E89000E8D1F04EC37001D3920130010A1211FEEF7B
:200CA00064016002C1B99000ADE0FEA3E0F5828E83740C93F53A740D93F53B90009612020D
:200CC00093D1D5900079E0FEA3E0FFF1DAF10AEF2408FFE43ED1E77B007A007938F1E374CA
:200CE00002F012065AC200D3900078E09539900077E095384002A1C49000AF12029FC00038
:200D0000C001C002C003AE38AF39E4FCFDC006C007900077E0FEA3E0FBAA06E4F9F8D00796
:200D2000D006120173D003D002D001D000120166D1D590007B120293EF24F2FFEE34FF1209
:200D400014471211F7507D9000AF1202937A00799FF1E1740EF012065A9000ABE0F536A33A
:200D6000E0F5379000A1E0F54AA3E0F54BA3E0F530A3E0F531A3E0F532A3E0F5339000928C
:200D8000120293EF24FFFFEE347FD1E7D1D5AE4AAF4BF1DAF10A1205AAEF64017026D1DB8D
:200DA000D1D5AE30AF31F1DAF10A1205AABF0214D1DBD1D5AE32AF33F1DAF10A1205AABF19
:200DC0000302D200200002C1B430010EE53B65377004E53A65367002C1B47B017A097922FB
:200DE000F1104002C1B490009B1202B700001800D1FCC18C7440D395345002C1A190007B04
:200E0000F1D3EE34F812144712029FD312025C4002C1A190009B1202937B007AF87901783C
:200E200000C312025C407A9000AF1202930B7A0179009000E17408F0A3E4F012065AE4F541
:200E400035FB121325AF3412136EE535C394085021121323E5357F00FEEF2400F974013E1A
:200E6000FA7B0190091AE535F0AD34121399053580D890009BF1D3EE3408D1E790009B1200
:200E800002AB9000AFF1D3EE3408D1E7D1D5E4FB7A08F9F890009B1202931201BD8F34A1C2
:200EA000F47440D39534400C121323AF3412136E053480EDE4FF1211AEE4F53CF53DF53E10
:200EC000F53F021800AEFFEE54CFFEEFC454F024804EF5FF229000AF0202AB9000AF1202C8
:200EE00093E42FFFEE3480FEE43DFDE43CFC22A3F051B2900922EEF0A3EFF022900079E095
:200F0000FEA3E0FFE4FCFD90009612029F02016690091F120308D1FCEF2408FFE43ED1E79C
:200F20007A00797FF1E17402F012065A90007FE0FEA3E0FFE4FCFD900092F10A7B017A0036
:200F40007984F1E3740EF012065A900092D1DE12144190008612142C7F0F7E1D1212E012FD
:200F6000011CFFAEF0C006C007F1D0E43E12143990008812142CD007D0061212E012011C9E
:200F8000FFAEF0C006C007F1D0EE348012143990008A12142CD007D0061212E012011CFF1A
:200FA000AEF0C006C007D1FC121441900085E02400FE900084E034E8900006F0A3CEF0D0F4
:200FC00007D0061212E012011C45F0C37001D322900092120293E42FFF22E4FCFD9000AF8A
:200FE000227B019000E1E4F0A322347F8F82F583E49322D1C5900922E0FEA3E0FF7BFF7ACF
:201000008079009000E822AB05E4FCFD900910EBF00204949000FC120308E4FCFDC00790B5
:2010200000FC1202E89000FFE0FF120FE3EFF0D00702065A9000F5120308E4FCFDC0079058
:2010400000F51202E89000F8E0FFA3E09000CDCFF0A3EFF0D0070206FB90004F1202AB900F
:201060000053120308E4900076F0D3900057E0941E900056E094004001227B017A00795856
:20108000900056E0FFA3E09000E1CFF0A3EFF090004F12029312065A9000531202E8E94A4C
:2010A000600F900076E0F58275830012008FFF80027F00900076E02458F582E43400F58362
:2010C000E06F6002C322900076E004FFF0D3900057E09F900056E0940050BD229009021232
:2010E0000308E4FCFDC0079009021202E890090511F6D0070159E0FFA3E0900056CFF0A32A
:20110000EFF022EFB40109D2AD75FF0143AE4022C2AD75FF0153AEBF22E5C85402FF75C8D5
:201120000222E5C85401FF22E490009AF07B017A0079811207DB900083E0FBB41122900021
:20114000961202B7000078009000921202B7000060009000777418F0A3E4F0A3F0A3802792
:201160007412D39B50279000961202B7000200009000921202B700020000E4900077F0A3A4
:20118000F0A37418F0A3E4F090009A04F090009AE0FB6017E4FFFE7D02FC900083E024EFCD
:2011A000F9F812028090007B1202ABAF0322900924EFF0E4A3F090009AE0602131EE7008D7
:2011C00031E37E777D00800A512F501131E37EFF7D017C00120494E433900925F090092566
:2011E000E0FF22900924E0900910F07FFF22E4FFFE7D02FC90007B12029FC302025CE49067
:20120000092AF090009AE0602031EE70087FFF7E77FDFC800C512F50107FFF7EFF7D017CBD
:20122000001205AA90092AEFF090092AE0FF2290007B120293E4FBFA7904F8D302025C90C4
:201240000000EEF0A3EFF0A31202939000081202AB900006E0FFA3E090000CCF80739000A7
:201260000CE0FEA3E0FF4E606EC3EF9440EE94004006A37440F0800590000EEFF07B017A59
:2012800000790F90000EE0FF120FE3EFF090000812029312065A90000EE0FFC390000DE0F8
:2012A0009FF090000CE09400F090000812029F90000EE4FCFDFE1201669000081202AB51BA
:2012C000D77B017A00790F90000E120AA8900000EEF0A3EFF08087900000E0FEA3E0FF224E
:2012E000513F90091F1202E8EE8FF012014790091F0202E87F0F7E1D120AAA9000EF1202BD
:20130000E89000F2020AA875FF03759701711AE59720E1FB75FF03AF992275FF038F987534
:20132000FF03227B007A00793C75FF0375D40275FF03120076F5D375FF03900001715590F8
:2013400000027155900003715575D40175FF03E5D55402FF2212008FF5D375FF032275FF04
:201360000375D40275FF03E5D5F45402FF2275FF03EF543F4480F5D1E5D520E20AE5D52060
:20138000E005E5D530E1F1E5D55403FF75FF0375D50575FF0375D4022275FF03ACD5EC20EE
:2013A000E13C75FF03ED543FF5D175FF03E9F5D375FF03EA540FFF90091AE0C45470448089
:2013C0004FF5D2E5D520E205E5D530E0F6E5D55401FC75FF0343D40275FF0375D505AF0462
:2013E000229000CA1202E89000CFE0FFA3E09000D8CFF0A3EFF09000C61202931205E09087
:2014000000CFE0FEA3E0FFC39000CEE09FF09000CDE09EF09000C612029FE4FCFD120166E3
:201420009000C61202AB9000CA0202E8E0FFA3E0900006CFF0A3EFF022FEED3401FDE43CB9
:20144000FC9000020202ABFEED34FFFDEC34FFFC9000AF22E475F0011202F1020076FFFFF3
:20146000FFFFFFFFFFFFFFFFFFFFFFFFFFFFFFFFFFFFFFFFFFFFFFFFFFFFFFFFFFFFFFFF8C
:20148000FFFFFFFFFFFFFFFFFFFFFFFFFFFFFFFFFFFFFFFFFFFFFFFFFFFFFFFFFFFFFFFF6C
:2014A000FFFFFFFFFFFFFFFFFFFFFFFFFFFFFFFFFFFFFFFFFFFFFFFFFFFFFFFFFFFFFFFF4C
:2014C000FFFFFFFFFFFFFFFFFFFFFFFFFFFFFFFFFFFFFFFFFFFFFFFFFFFFFFFFFFFFFFFF2C
:2014E000FFFFFFFFFFFFFFFFFFFFFFFFFFFFFFFFFFFFFFFFFFFFFFFFFFFFFFFFFFFFFFFF0C
:20150000FFFFFFFFFFFFFFFFFFFFFFFFFFFFFFFFFFFFFFFFFFFFFFFFFFFFFFFFFFFFFFFFEB
:20152000FFFFFFFFFFFFFFFFFFFFFFFFFFFFFFFFFFFFFFFFFFFFFFFFFFFFFFFFFFFFFFFFCB
:20154000FFFFFFFFFFFFFFFFFFFFFFFFFFFFFFFFFFFFFFFFFFFFFFFFFFFFFFFFFFFFFFFFAB
:20156000FFFFFFFFFFFFFFFFFFFFFFFFFFFFFFFFFFFFFFFFFFFFFFFFFFFFFFFFFFFFFFFF8B
:20158000FFFFFFFFFFFFFFFFFFFFFFFFFFFFFFFFFFFFFFFFFFFFFFFFFFFFFFFFFFFFFFFF6B
:2015A000FFFFFFFFFFFFFFFFFFFFFFFFFFFFFFFFFFFFFFFFFFFFFFFFFFFFFFFFFFFFFFFF4B
:2015C000FFFFFFFFFFFFFFFFFFFFFFFFFFFFFFFFFFFFFFFFFFFFFFFFFFFFFFFFFFFFFFFF2B
:2015E000FFFFFFFFFFFFFFFFFFFFFFFFFFFFFFFFFFFFFFFFFFFFFFFFFFFFFFFFFFFFFFFF0B
:20160000FFFFFFFFFFFFFFFFFFFFFFFFFFFFFFFFFFFFFFFFFFFFFFFFFFFFFFFFFFFFFFFFEA
:20162000FFFFFFFFFFFFFFFFFFFFFFFFFFFFFFFFFFFFFFFFFFFFFFFFFFFFFFFFFFFFFFFFCA
:20164000FFFFFFFFFFFFFFFFFFFFFFFFFFFFFFFFFFFFFFFFFFFFFFFFFFFFFFFFFFFFFFFFAA
:20166000FFFFFFFFFFFFFFFFFFFFFFFFFFFFFFFFFFFFFFFFFFFFFFFFFFFFFFFFFFFFFFFF8A
:20168000FFFFFFFFFFFFFFFFFFFFFFFFFFFFFFFFFFFFFFFFFFFFFFFFFFFFFFFFFFFFFFFF6A
:2016A000FFFFFFFFFFFFFFFFFFFFFFFFFFFFFFFFFFFFFFFFFFFFFFFFFFFFFFFFFFFFFFFF4A
:2016C000FFFFFFFFFFFFFFFFFFFFFFFFFFFFFFFFFFFFFFFFFFFFFFFFFFFFFFFFFFFFFFFF2A
:2016E000FFFFFFFFFFFFFFFFFFFFFFFFFFFFFFFFFFFFFFFFFFFFFFFFFFFFFFFFFFFFFFFF0A
:20170000FFFFFFFFFFFFFFFFFFFFFFFFFFFFFFFFFFFFFFFFFFFFFFFFFFFFFFFFFFFFFFFFE9
:20172000FFFFFFFFFFFFFFFFFFFFFFFFFFFFFFFFFFFFFFFFFFFFFFFFFFFFFFFFFFFFFFFFC9
:20174000FFFFFFFFFFFFFFFFFFFFFFFFFFFFFFFFFFFFFFFFFFFFFFFFFFFFFFFFFFFFFFFFA9
:20176000FFFFFFFFFFFFFFFFFFFFFFFFFFFFFFFFFFFFFFFFFFFFFFFFFFFFFFFFFFFFFFFF89
:20178000FFFFFFFFFFFFFFFFFFFFFFFFFFFFFFFFFFFFFFFFFFFFFFFFFFFFFFFFFFFFFFFF69
:2017A000FFFFFFFFFFFFFFFFFFFFFFFFFFFFFFFFFFFFFFFFFFFFFFFFFFFFFFFFFFFFFFFF49
:2017C000FFFFFFFFFFFFFFFFFFFFFFFFFFFFFFFFFFFFFFFFFFFFFFFFFFFFFFFFFFFFFFFF29
:2017E000FFFFFFFFFFFFFFFFFFFFFFFFFFFFFFFFFFFFFFFFFFFFFFFFFFFFFFFFFFFFFFFF09
:20180000022B9B025E601A3E7FB822025EA41A611A66FF025E9F1A9D1A98FF025EA91AA265
:201820001AA7FF025E5B1AED1AF2FF0248C4EF90183793901900730A20364CE55CFF22EF93
:20184000F55C22822D1C1613111010024A2C902D56EBF0A3EAF0A3E9F0E4902D5EF0A3F00F
:20186000902D5C74FFF5F01222C145F0603C902D59E0FBA3E0FAA3E0F91221A8FF902D565A
:20188000E0FBA3E0FAA3E0F9902D5EE475F0011222C185F082F583EF122222EF60C2902D98
:2018A0005AE475F0011222AB80B6902D56E0FBA3E0FAA3E0F922C2D5E830E70FB2D5E4C393
:2018C0009BFBE49AFAE499F9E498F8EC30E717B2D51218EC1223FFE4C39BFBE49AFAE499F3
:2018E000F9E498F880031223FF30D50DE4C39FFFE49EFEE49DFDE49CFC221AC000400000B7
:20190000C05C7419C0E0C082C083755C0AE5FF54CF4490F5FF22C05C7419C0E0C082C0835F
:20192000755C20E5FF54CF4490F5FF22C05C7419C0E0C082C083755C36E5FF54CF44A0F510
:20194000FF22C05C7419C0E0C082C083755C4CE5FF54CF44B0F5FF22908000211690803FD4
:201960002116908058211690807B211690809E211690803A2116908028211690802F211684
:20198000908008211690805B21169080BD2116908E6B211690934D21169093552116909D0F
:2019A0003F2116909F3A211690B21B211690B32C211690B53421169091BA211690B910219B
:2019C00016909797211690C005211690C01B211690C02D211690C11A211690C49F211690BE
:2019E000C5972116909CD2211690C87C211690C893211690C9CA211690C81D211690C6BBDB
:201A0000211690BDB9211690C77A211690BEEA211690C096211690B68D211690BBE621164C
:201A200090B990211690BD46211690C155211690C273211690C22E211690C19B211690CBBE
:201A40006D211690CA80211690CCFF211690BF2F211690C499211690C390211690C3DE21FA
:201A60001690CE3C211690BFA02116909C69211690BD1D212C90A412212C90D582212C907F
:201A8000A7B7212C90D59C212C90D310212C90D59D212C90D5A9212C90CCA4212C90D5B47D
:201AA000212C908000212C90D737212C90D773212C90D779212C90D4F4212C90D77F212C65
:201AC00090A08F212C90D8CC212C909F59212C909D77212C90CF91212C90D167212C90D9F8
:201AE000FA212C90D29E212C90D1BE212C90B761212C90B7B0212C90DB3D212C90DC7221B9
:201B00002C90D40B212C90BB19212C90DC8F212C90C47E212C90C7C2212C90D2D8212C9048
:201B2000C704212C90DD56212C90D0A1212C90ADE4212C90C112212C90DDA8212C90D0123D
:201B4000212C90DDAE212C90C7EE212C90AE62212C90DDBA212C90DE07212C90DE56212C0A
:201B600090A7F7212C90C78E212C90C77A212C90C77C212C90DE5F212C90D2F4212C90BB72
:201B80002C212C90BB7E212C908000214200DFFE22A2AF92D5C2AF71F1EF91139140EC91D8
:201BA000139140ED9113914071F174014F91139140798B8006915B9177F709DBF8915B9176
:201BC00086F791AAA2D592AF22A2AF92D5C2AF71F1EF91139140EC91139140ED91139140C1
:201BE000798BE79113914009DBF891AAA2D592AF2275FF014352104356108552CBD2B59117
:201C0000CCC2B475FF015352EF8552CBC2B491CCC2B5227808C2B533400FC2B475FF0153B4
:201C200052EF8552CBC2B4800C75FF014352104356108552CB91CCD2B591CCD8D8C2B522D0
:201C400075FF014352104356108552CBD2B591CCA2B4500000000000C2B52275FF014352F2
:201C6000104356108552CB7808D2B591CCA2B433C2B591CCD8F322C2B475FF015352EF8557
:201C800052CBC2B4800E75FF014352104356108552CB91CCD2B591CCC2B591CCC2B475FFBF
:201CA000015352EF8552CBC2B422C2B475FF015352EF8552CBC2B4C2B591CCD2B591CC7591
:201CC000FF014352104356108552CB220000000000000000000000000000002202209DE829
:201CE0006480F8E933E83360110460F0ED33EC337009E8FCE9FDEAFEEBFF220460DED3EB96
:201D00009FEA9EE99DE8C2E78CF0C2F795F0400CE8CCF8E9CDF9EACEFAEBCFFB122068859E
:201D2000D0F05804700320D5B3E80470075002B2D50220A792D5EC0460F7E4CCC0E0C3980E
:201D4000F8603B94186008400DD0E0FB02207FE4FBFAC9FC8028E830E406E4C9FBE4CAFCA9
:201D6000E830E305E4C9CACBFCE854076010F8C3E913F9EA13FAEB13FBEC13FCD8F130F5E9
:201D80002FC3E49CFCEF9BFFEE9AFEED99FDD0E0FBEF4E4D4C701222DB030220A4EC2CFC66
:201DA000EF33FFEE33FEED33FDED30E7EB02207FEF2BFFEE3AFEED39FDD0E0FB50130BBB00
:201DC00000030220A7ED13FDEE13FEEF13FFEC13FC02207FEC4D6011E8497017ED33EC33FD
:201DE00004600DE4FCFFFEFD22E933E8330470F802209D12206858046009E4CC248150060A
:201E00002850090220A72840030220A4C0E0EB4A7044B98006D0E0FB022093EF4E701CBD99
:201E20008008EBFFEAFEE9FD80EBE98DF0A4FEE5F0021EBDE9CDF9EAFEEBFFEF89F0A4FCB4
:201E4000E5F0CE89F0A42EFFE435F0CD89F0A42DFEE435F08067EF4E7005BD80D780C3EF8F
:201E60008BF0A4ACF0EE8BF0A42CFCE435F0F8EF8AF0A42CE5F038FCE433CB8DF0A42CFC04
:201E8000E5F03BF8EE8AF0A42CFCE5F038F8E433CF89F0A42CFCE5F038CF3400CE89F0A4DB
:201EA0002FFFE5F03EFEE433C98DF0A42EFEE5F039CD8AF0A42FFFE5F03EFEE43DFD33D05D
:201EC000E0FB50070BBB000F0220A7EC2CFCEF33FFEE33FEED33FD02207F0220A7EC5D040A
:201EE0006005E85904700302209D122068580460F6EC4860F2EC7004FDFEFF22C860DB2491
:201F000081C85009C398600250060220A49850CAF582E9294B4A7005AB8202209375F000BA
:201F20007C1A7880C3EF9BEE9AED99400DC3EF9BFFEE9AFEED99FDE842F0DC23ACF0D0E0B1
:201F4000FFD0E0FED0E0FDAB8220E7101BEB60BAEC2CFCEF33FFEE33FEED33FD02207FE8C9
:201F600003F830E705C0F075F000EF2FFFEE33FEED33FD40B830E7C280AA74F8CC6480CCF9
:201F8000C86480C8F58204604FC3EB9FF5F0EA9E42F0E99D42F0E89C45F0603C501DE582D6
:201FA0005FFFE582D313CB5BCBF42B5582FB50280ABA002409B9002008801DE5825BFBE50B
:201FC00082D313CF5FCFF4C3132F5582FF50090EBE00050DBD00010CC3EB9FF5F0EA9E42D0
:201FE000F0E99D42F0E89C45F06007CC4820E701B3EC2275F020800E75F010800575F008C2
:202000007D007E007F003392D530D50312249EEC334010EF33FFEE33FEED33FDEC33FCD514
:20202000F0ED22E5F0247EA2D513CC92E7CDCEFF22EDD2E7CD33EC3392D524814006E4FFA5
:20204000FEFDFC22FCE4CFCECDCC24E0501174FF80EDC3CC13CCCD13CDCE13CECF13CF048D
:2020600070F030D5DE02249EE9D2E7C933E833F892D5EDD2E7CD33EC33FC5002B2D522EC99
:2020800030E7100FBF000C0EBE00080DBD00040BEB6014A2D5EB13FCED92E7FD2274FFFCCE
:2020A000FDFEFF22E480F8A2D574FF13FC7D80E480EFE709F608DFFA8046E709F208DFFA0F
:2020C000803E88828C83E709F0A3DFFA8032E309F608DFFA8078E309F208DFFA80708882A7
:2020E0008C83E309F0A3DFFA806489828A83E0A3F608DFFA805889828A83E0A3F208DFFADD
:20210000804C80D280FA80C680D4806980F28033801080A680EA809A80A880DA80E280CA17
:20212000803389828A83ECFAE493A3C8C582C8CCC583CCF0A3C8C582C8CCC583CCDFE9DE2D
:20214000E7800D89828A83E493A3F608DFF9ECFAA9F0EDFB2289828A83ECFAE0A3C8C582EA
:20216000C8CCC583CCF0A3C8C582C8CCC583CCDFEADEE880DB89828A83E493A3F208DFF97F
:2021800080CC88F0EF60010E4E60C388F0ED2402B4040050B9F582EB2402B4040050AF23FE
:2021A0002345822390210273BB010689828A83E0225002E722BBFE02E32289828A83E49366
:2021C00022BB010CE58229F582E5833AF583E0225006E92582F8E622BBFE06E92582F8E2E3
:2021E00022E58229F582E5833AF583E49322BB010989828A83F8E028F022500327F722BBC6
:20220000FE05F8E328F3228A838982F8E4932822BB010689828A83F0225002F722BBFE01C1
:20222000F322F8BB010DE58229F582E5833AF583E8F0225006E92582C8F622BBFE05E9251B
:2022400082C8F222EF8DF0A4A8F0CF8CF0A428CE8DF0A42EFE22BC000BBE0029EF8DF08486
:20226000FFADF022E4CCF875F008EF2FFFEE33FEEC33FCEE9DEC984005FCEE9DFE0FD5F087
:20228000E9E4CEFD22EDF8F5F0EE8420D21CFEADF075F008EF2FFFED33FD4007985006D5EE
:2022A000F0F222C398FD0FD5F0EA22C5F0F8A3E028F0C5F0F8E582158270021583E038F0DD
:2022C00022A3F8E0C5F025F0F0E582158270021583E0C838F0E822BB010A89828A83E0F512
:2022E000F0A3E022500687F009E71922BBFE07E3F5F009E3192289828A83E493F5F07401B9
:202300009322BB0110E58229F582E5833AF583E0F5F0A3E0225009E92582F886F008E6224A
:20232000BBFE0AE92582F8E2F5F008E222E5832AF583E993F5F0A3E99322BB010A89828A78
:2023400083F0E5F0A3F0225006F709A7F01922BBFE06F3E5F009F31922EF2BFFEE3AFEED6E
:2023600039FDEC38FC22C3EF9BFFEE9AFEED99FDEC98FC22E88FF0A4CC8BF0A42CFCE98E59
:20238000F0A42CFC8AF0EDA42CFCEA8EF0A4CDA8F08BF0A42DCC3825F0FDE98FF0A42CCD76
:2023A00035F0FCEB8EF0A4FEA9F0EB8FF0A4CFC5F02ECD39FEE43CFCEAA42DCE35F0FDE4E9
:2023C0003CFC2275F008758200EF2FFFEE33FECD33CDCC33CCC58233C5829BED9AEC99E51E
:2023E0008298400CF582EE9BFEED9AFDEC99FC0FD5F0D6E4CEFBE4CDFAE4CCF9A88222B8C5
:2024000000C1B90059BA002DEC8BF084CFCECDFCE5F0CBF97818EF2FFFEE33FEED33FDEC43
:2024200033FCEB33FB10D703994004EB99FB0FD8E5E4F9FA227818EF2FFFEE33FEED33FD60
:20244000EC33FCC933C910D7059BE99A4007EC9BFCE99AF90FD8E0E4C9FAE4CCFB2275F0AC
:2024600010EF2FFFEE33FEED33FDCC33CCC833C810D7079BEC9AE899400AED9BFDEC9AFC84
:20248000E899F80FD5F0DAE4CDFBE4CCFAE4C8F922EF5BFFEE5AFEED59FDEC58FC22C3E41D
:2024A0009FFFE49EFEE49DFDE49CFC22EB9FF5F0EA9E42F0E99D42F0E89C45F022E8600FCF
:2024C000ECC313FCED13FDEE13FEEF13FFD8F122E8600FEFC333FFEE33FEED33FDEC33FCC4
:2024E000D8F122BB010789828A830225255005E9F802275FBBFE05E9F802276B22E0FCA338
:20250000E0FDA3E0FEA3E0FF22E493FC740193FD740293FE740393FF22E0F8A3E0F9A3E038
:20252000FAA3E0FB22ECF0A3EDF0A3EEF0A3EFF022A8828583F0D083D082122548122548BB
:20254000122548122548E473E493A3C583C5F0C583C8C582C8F0A3C583C5F0C583C8C58209
:20256000C822A42582F582E5F03583F58322E0FBA3E0FAA3E0F922F8E0FBA3A3E0F925F08B
:20258000F0E582158270021583E0FA38F022F8E0FBA3A3E025F0F9F0E58215827002158320
:2025A000E038FAF022EBF0A3EAF0A3E9F022BB010789828A8302256E5005E9F8022777BB00
:2025C000FE05E9F802278989828A8302279BBB011A89828A83D0F0D0E0F8D0E0F9D0E0FAE0
:2025E000D0E0FBE8C0E0C0F00225A55016E9F8D083D082D0E0F9D0E0FAD0E0FBC082C083BD
:20260000022780BBFE16E9F8D083D082D0E0F9D0E0FAD0E0FBC082C08302279222D083D039
:2026200082F8E4937012740193700DA3A393F8740193F5828883E4737402936860EFA3A3EA
:20264000A380DF8A838982E473EC8EF0A4CCC5F0CCCDF8EFA4CEC5F02DFDE43CFCE8A42ED3
:20266000C8C5F03DFDE43CFCEFA4FFE5F028FEE43DFDE43CFC22E709F60870FA8046E70990
:20268000F20870FA803E88828C83E709F0A370FA807EE309F60870FA8076E309F20870FA7A
:2026A000806E88828C83E309F0A370FA806289828A83E0A3F60870FA805689828A83E0A3D4
:2026C000F20870FA804A80D280FA80C680D4806580F28031801080A680EA809A80A880DAA2
:2026E00080E280CA803189828A83ECFAE493A3C8C582C8CCC583CCF0A3C8C582C8CCC58330
:20270000CC70E9800D89828A83E493A3F60870F9ECFAA9F0EDFB2289828A83ECFAE0A3C89C
:20272000C582C8CCC583CCF0A3C8C582C8CCC583CC70EA80DD89828A83E493A3F20870F914
:2027400080CE88F0ED2402B4040050C4F582EB2402B4040050BA23234582239026C673EC7F
:20276000F608EDF608EEF608EFF622ECF208EDF208EEF208EFF222E6FB08E6FA08E6F922F3
:20278000EBF608EAF608E9F622E2FB08E2FA08E2F922EBF208EAF208E9F222E493FB7401F4
:2027A00093FA740293F922412C77004102B20041306A00C143C139410415060114004104FC
:2027C000140141041301C12F011A00011700C130C132C11C412645004126ABFF4126A300E0
:2027E000C11BC11A4126AC004126AD004126A401C11E41264400C135C12C012C00C129C1AA
:202800002A432EEB000000412EEA00412EEE00012000412503004124FC0041245500412472
:20282000A60041245A00412E1500412E1200412E1300C14E412E1100C14F41304E004229E3
:2028400085000F60662987000000000000000000000000000000000000000000000000006E
:20286000000000000000000000000000000000000000000000000000000000000000000058
:20288000000000000000000000000000000000000000000000000000000000000000000038
:2028A00000000000000000000000000000412E9C00C152412BCE00412BCF00412BD0004405
:2028C0002BC60026FF85442BCA0099A2C4442BD10099A2C4442AFB00000000442AF300001C
:2028E0000000442B0700000000C127C124C125C128C126412AEF00412AF13C412AF200C1CF
:202900005A412C0A00412C1128412C1500422C080000412C1400412C0700412C0D00413068
:202920005600412EA9FF412EA4FFC1B6C138412EA300C137432FBD000000412FC000412CD2
:202940002900412C3200412C3600412C3500412C3100412C2C00422C2A0000422C380000F5
:20296000432B86000000412B8B00492B6C4C6966656C696E65004B2B7952657472616E7396
:202980006D697400412B9001442B8C20038201442B7525012001412B85FF4121C3004122AC
:2029A000840041207000C140C13F41206EFF412026004121C402412210FF4121FE0041270A
:2029C00092FF41280EFF412821FF412822FF412820004128150041281F0043281A000000C9
:2029E00041281E0043280F0000004128140041281D00422823000042281600004228180044
:202A00000041291500412967FF6050291601030300000505001B6A0501001B6A000701004F
:202A20000002030300000201001B6A0306001B6A0301001B6A0101001B6A01020200000063
:202A40000804000004040500000004051B740005000000FF03FE0000FFFFFE1B6559296B57
:202A60000207D01B6F0307D01B6F0500141B6F0107D01B6F0407D01B6F609626FB0000000E
:202A8000000000000000000000000000000000000000000000000000000000000000000036
:202AA000000000000000000000000000000000000000000000000000000000000000000016
:202AC0000000000000000000000000000000000000000000000000000000000000000000F6
:202AE0000000000000000000000000000000000000000000000000000000000000000000D6
:202B000000000000000000000000000000000000000000E00C02613A0086026000030060E1
:202B200001040436009027A7E47E0193700122A3FF543F30E509541FFEE493A360010ECF53
:202B400054E0B4E03AEFFAEEF9E493FBA3E493FEA3E493FFA3E493FDC083C082C001C002E1
:202B6000C006C007121976D007D006D002D001D082D083A30FEF70010EDADAD9D880A95430
:202B8000C025E060105005A3DFFD809CA3A3A3DFFDDEFB8093A3A3DFFD808D75819075FF36
:202BA00003759E021219200238D7022C749027A7E47E019360F4A3FF543F30E509541FFE93
:202BC000E493A360010ECF54E0B4E00EEFFAEEF9A3A3A3A3DAFDD9FB80D654C025E0604BA6
:202BE0005026E493A3F85407240CC8C333C4540F4420C8834004F456800146F6DFE480B0F0
:202C00000102040810204080E493A3FAE493A3F8E493A3C8C582C8CAC583CAF0A3C8C58220
:202C2000C8CAC583CADFE9DEE78085E493A3F8E493A34003F68001F208DFF4022BB07890C6
:202C4000E4F6D8FD9000007F007E10E4F0A3DFFCDEFA904FFFA3E583C394204011FEAF821E
:202C60009020000E0FE48002F0A3DFFCDEFA121920022BAD2232E4FFFE1221A8600C0FEF3C
:202C800070010E09E970F20A80EF225E25263370273281855972867A7398EF5A825E2526D1
:202CA0003370273281855972867A73EF5A825E867298EF5A822526337027328185597A73BD
:202CC0001A7A3F241E16110E0B09070504030201F0C8A791776760463835323024222014C3
:202CE000000101020203030404050506060707413031303131343439303032323737000095
:202D00000000000000000043423130352D42303900000000000001000000000000000000BF
:202D2000000000000000001B381B3D1B421B471B4C1B511B561B5B980500000E08F8000EB6
:202D40000F3800000000020C00003F3F3F04040419E919EE19F319F819FD1A021A0C1A1BA2
:202D6000B98A1B101B151B1A1B1F1B241B291B2E1B335A2D5761766520342E35340019947A
:202D800019A319A819AD19B219BC1B651B6A1B6F1B741B791AAC1AB11AB61ABB1AD91ADE7D
:202DA0001AE31AE81AC51ACA1ACF1AF71AFC1B011B061B0B1B7E1B831A487F01F193902C85
:202DC0006FE012261D2DE1042DE9142DEE152DF3172E03302E08342E0D362E123700002DCC
:202DE000FB5353EF855380802F5354EF80085354DF800353547F855490801D5355DF855588
:202E0000A080155356FE800D5356EF80085356BF800353567F8556B07F0CDFFE227F01F190
:202E2000939030677401F0903067E060301261A7D1B6903067EFF0F1F5D1A5902C6BEFF0D3
:202E4000F1F5903067E054011261BE60DAA3E0F460D5EF30E7D1E4903067F080CAB1BE7F0F
:202E60009FD19DD1B6902C6CD1B4902C71D1B4902C72EFF0F18F902C6AE0F4601BA3E0F4E6
:202E80006016902C71E0FD541F240FA3F0EDC41354074480902C71F0221224FDE4E5C82073
:202EA000E2FB8FEB22B1BE7FD7D19D7FFFD19DD1BA902C6AEFF07FFFD19DE5C820E2FBAFA5
:202EC000EB227F01F1933041151261A7D1B6903069EFF0F1F5903069E020E002C24130414D
:202EE00018D1A5902C6BEF1261BE600BA3E0F46006EF30E702C241F1F5E4FFF193A241E496
:202F000033FF22902F31122525902F311224FDF152902F35E06F6038124307D1C2EF60058D
:202F20001234F380F6F1E9B1BE902C6DE0FFF1E06008902F31126163D19D902F311237F5F6
:202F4000D19D902F31D199902F35E0FFF18DD322C322902F2C122525124307D1C2EF6005F4
:202F60001234F380F6F1D86008902F2C126163D19D902F2C1237F5D19D902F2CD199D1B6CF
:202F8000902F30EFF0F18F902F30E0FF22D19DF1F5E4FFEFB4010443FE202253FEDF22122D
:202FA0004307D1C2EF60051234F380F6F1E9B1BE7F01D19D7F03D19DF1F5E4FF80D5902C30
:202FC0006AE020E012B1BA7F3DD19D7F2AD19D7F80D19D7FA6F18D227F01F193B1BE7F03C2
:202FE000D19D902C70E06402227F01F193D241B1BE7F06D19D12489CEF70FA902C71E0F406
:20300000600B9030667406F012307270FB902C6FE012261D303004303814303D153042174B
:20302000305230305734305C363061370000304A435310855380802F43541080084354208C
:203040008003435480855490801D4355208555A08015435601800D43561080084356408058
:20306000034356808556B0903066740CF0117270FC22903066E014F0E022902D601225257D
:20308000902D641225A5124307122EC2EF600491F380F6122FE9122DBE902C6DE0FF122F18
:2030A000E06009902D60126163122E9D902D60F1F5122E9D902D601224FDE48024902D671B
:2030C0001261746021902D6412256EEA494B600F902D64E475F0011225771221A88001E47C
:2030E000FF122E9D80D7122FF5E4FF022F9331FF1225A5902CE612256E902CE91242E790FD
:203100002CE21224FD124264500221BF902C74E024FFFF902C73E034FFFEE4FCFD902CE297
:20312000122519122491902CEBEEF0A3EFF04E603D902CEB125B82902C74E09FFF902C7313
:20314000E09EFE902CEBF0A3EFF0902CE91247A4500312576731C112256EE94A600A902C25
:20316000EBE0FEA3E0FF804A7E007F008044902CE9F1DD6048902C73E0FCA3E0FDD3EF9D74
:20318000EE9C400A902CEBECF0A3EDF0800D902CE9E0FFA3E0A3CFF0A3EFF031C112256E49
:2031A000E94A600A902CEBE0FEA3E0FF80047E007F00902CE7EE8FF01222AB80B1D322C312
:2031C00022902CE612256E902CEBE0FFA3E0902D67CFF0A3EFF0902CE21224FD117A902C00
:2031E000EBE0FEA3E0FFC3902CEAE09FF0902CE9E09EF0902CE2122519E4FCFD12235990B0
:203200002CE2122525902CE622902D4C1225A5902D4FECF0A3EDF0902BB4E0700241D3124C
:203220005EF151E1704A51D950469161A351F6E4FB7A18F9F8C31224AC5035902D511225E6
:2032400019C3E49BFF74189AFEE499FDE498FCE4902D4D8FF01222ABC3902D50E09FF090E3
:203260002D4FE09400F0902D511225310000180091DE51F6A804A905AA06AB079161122347
:2032800059902B95122519D31224AC4041125EFB4022E451D94037902D4FE0FEA3E0FBE461
:2032A0009BFF74A09EFE74019400FDE49400FCA351E1501A91DE51F6C007902D4C12256EE0
:2032C000902D4F124243D00711EEE4338001E4902D55F0902D55E0FF22FF7E18FDFC902D99
:2032E00051122519C30224AC902B93E0FEA3E0FFE4FCFD902BB012251902235990302712DB
:2033000025A551E8EF2408B1277A2B7999914E7402F09187902B999164902BAC51F67A2B07
:20332000799E914E740EF091879157EE3480B12A9148902BA0917A7F0F7E1D9132916DC0BF
:2033400006C0079157E43E9140902BA2917AD007D0069132916DC006C0079157EE34809147
:2033600040902BA4917AD007D0069132916DC006C00751E89148902B9FE02400FE902B9EE1
:20338000E034E8902AA6F0A3CEF0D007D006913290302712256E1222D745F0C37001D3221B
:2033A000902AA0EEF0A3EFF0A31224FD902AA8122525902AA6E0FFA3E0902AACCF80649054
:2033C0002AACF1DD6063C3EF9440EE94004006A37440F08005902AAEEFF091E8FF9150EFDD
:2033E000F0902AA81224FD9187902AAEE0FFC3902AADE09FF0902AACE09400F0902AA81212
:203400002519902AAEE4FCFDFE122359902AA8122525912991E8FD12619AEDF01219E49026
:203420002AA0EEF0A3EFF08096902AA0E0FEA3E0FF2271A090302712256EEE8FF002233A07
:20344000FEED3401FDE43CFC902AA20225257B01902D70E4F0A322902BAC1224FDE42FFF9D
:2034600022902D4FE0FEA3E0FFE4FCFD2290302712256E1222D7FFAEF022E0FFA3E0902A4D
:20348000A6CFF0A3EFF022902D69122525902D6D1225A5124307122EC2EF600491F380F6F0
:2034A000122FD86009902D69126163122E9D902D69F1F5122E9D902D69122E99902D70128A
:2034C00061746012122EB6902D6D12474E902D6EE412491D80E6122FF5E4FF022F93902D57
:2034E000511224FD902BAC227B017A2A79AF902AAEE022E51530E20FE51520E50AE51530BF
:20350000E0057F01123EEA22FF7E04FDFCE0F8A3E0F9A3E0FAA3E0FB122374E47B7DFAF9A9
:20352000F81223FFEF2401FFE43EFEE43DFDE43CFC22902BD512252575FF0243E180125167
:2035400039125C8B902BEA122531002DC6C0E4F5FFF5A490120EF0A3F0902BE57402F0F1DE
:20356000E4FFF595EF14601314601C24027027902BD5D1ADD1B8902BE18016902BD9D1AD40
:20358000D1B8902BE2800A902BDDD1ADD1B8902BE3E0902BEEF0125CB4902BEEE0700FF5A6
:2035A000FFF59675FF0175D70975F418805C90120EE004F0902BE5E01261B6902BEAD1AD0A
:2035C000FF902BE6125D67C31224AC500A902BE6D1ADFFA3122525902BEEE0FF125BEB90E9
:2035E0002BE4E0FFA3E0FDA2499247125C39A3D1ADFF902F41122525902BE5E0FF125CC1C8
:20360000902BE5E0D1A0FF125A38F1EC6002A15F7402F0F1E4F595E5F45407701D902BEAAC
:20362000B10878011224BD902BE5E0FB125D5BF583122525D19FFF125A38F1EC70D575FFA3
:2036400003759580124FEE400343F420A24992481255D2902BEAD1AD2420FFEE344EB12A45
:20366000E4FB7A04F9F8B11878011224BDC246125A8FE4F5FFE5BD54F84404F5BD9012134F
:203680007401F07E127F01E4FDEF2DF582E43EF583E0FC901213E02CF00DEDB412EB22EB62
:2036A00025E025E02401F582E43412F583E0FCA3E0FDA3E0FEA3E022FF902BE602252590C4
:2036C0002E6B124577902E717401F0C24A124F44F1D25005E5FC20E6F7124F83BF0108E4B8
:2036E000F5FC75FC408008124F83BF0202D322124FE7902E6CE0FF125D7375FF0153D5DF55
:2037000053FAFB902E6BE0FF124C95902E6CE0902E6BB40809E0D1A02452B1278004E0D19A
:20372000A0FF125A38902E6DE0FF125DCC75FF0175FF03759B04124F4475FC42E5FC20E1C7
:2037400004F1D240F4902E6EE0F075FF03E59B20E704F1D240F4E59B20E70D75FF03759B5E
:203760001F125139D24A804FF1CB1252AF902E6CE0FD90120FE05D701C902E6BE0FFF1CB8F
:2037800012530B90120FE0FF902E6CE0FEEF4E90120FF0D17D125A747B017A2E796F125A9D
:2037A0000F500FC3902E70E09420902E6FE0940340E6F1CB125B92124F34304A02C1C5906A
:2037C0002E71E0B40103D38001C3227B017A2E79712275FF03E591C330E701D322E0FEA30B
:2037E000E0FF4E2275FF03902BE5E022902BE5E0FF14F0EF221224FD78081224BDE4229091
:203800002C6CE0122210902C71E0900001122222902C72E0900002022222E4902BB4F07B54
:20382000017A2B799B1237FF902B9DE0FBB41122902BB012253100007800902BAC12253152
:2038400000006000902B917418F0A3E4F0A3F0A380227412D39B5022902BB01225310002B6
:203860000000902BAC12253100020000E4902B91119BA3E4F0902BB404F0902BB4E0FB6017
:2038800017E4FFFE7D02FC902B9DE024EFF9F81224D0902B95122525AF0322F0A3F0A37459
:2038A00018F022903068EFF0902C78E064027026122DBA903068E07FAB60027FB9122E9D25
:2038C000122FF5903068E0902C77F070047F1EDFFEE4FF122F932275FF0275E404E4F5E430
:2038E000C22E75FF02901215E0603CE5E6540364017034121A521250B04020901222E06010
:203900000DE014F07008122C3EE4901215F0901215E07002219F124536219F122C3ED22EA5
:20392000E4901215F08078122C3E1259199002B3EFF0901200E0B47A14901214E0B49C0D29
:203940009002B3E0FF64056004EFB4032EE49002BCF09002BCE0FFC394405013E42FF582CF
:20396000E43412F583E4F09002BCE004F080E3901200747AF0901214749CF01219DF7B0190
:203980007A1279107D017F011219DA7A1279117F2112614C7A1279127D017F221219DA124D
:2039A0001A5712591912485B9002B3EFF01219D01248169002B3E0FFB40602800C302E0400
:2039C0007F0280059002B3E0FF121A70EF24FFB3924375FF0253E6BF9002B3E0640160052A
:2039E000E4901215F01248A8121A5C124352901215E0700F20430C121A757B017A2679AFA1
:203A0000121A1190121DE030E0028003302E047F01D1EAD2AF3043771249E01245C4121AAB
:203A2000841219D540F29002B2E06041F185EF70051247AE4037E51470FCE51520E503123A
:203A40005112121962EF70FA1258DE50051258CA50047F0111A39002B2E0B40204E4FF8083
:203A6000099002B2E0B403057F01124553715FE51530E1A4F19A4002E4F0E51520E50A907A
:203A800002B471507D01124C1C714DF1DB80891247D91244665002F1059002B2E0605D907D
:203AA0002645E07057F185EF70051247AE404DE51470FCE51520E50A90121DE020E0031264
:203AC0005112121962EF70FA1258DE50051258CA50047F0111A39002B2E0B40203E48018EB
:203AE0009002B2E0B403047F01800E9002B2E0B4050A9012157401F0FF1245531249E012E0
:203B000045C4121A7F9002B0E07004715F8015124A23FF9002B0E0FEC3EF9EC39406400269
:203B2000E4F0D2AD12180AE51530E119F19A4002E4F0E51520E50A9002B471507D01124C4D
:203B40001C714DF1DB121A43124804418F9002BCE075F0AA9002BF122562AF82AE8322E493
:203B6000900449124452B10654F06440700281CEE4FE75F0E5EEB10BFDB4010990044AEE03
:203B8000F0E4FF8022EDB4020B90044AE0B4FF04EEF0800E75F0E5EEB10B54F0FDBD8002AD
:203BA0007F010EEEB403CBEF600690044A74FFF090044AE0F4700281CE124FF6500281CE06
:203BC000E51530E10281CE90044AE0900004F1E330E40E75F0E5EF900006122562E0549F06
:203BE000F090044AE09000B8F1E3540FFEBE050E75F0E5EF9000BC122562E030E120900406
:203C00004AE0FF75F0E5900003122562E020E52775F0E5EF9000BB122562E0B4FF1990049C
:203C20004AE0F1ECC083C082E04401FFA3E0D082D083CFF0A3EFF090044AE0FDF1ECE0FEF5
:203C4000A3E0FFC006C007ED75F0E5A424B3F9740035F0FA7B01C002C00190044AE0FF75E6
:203C6000F0E59000D9122562E090042CF0EF75F0E5A42409F9740035F0FAA31225A5900434
:203C80004AE0FF75F0E59000B2122562E0900430F075F0E5EF9000DA122562E0900431F071
:203CA000E4A3F0D001D002D007D006B113501F90044AE0F55A75F0E5B10B4440F0900449A6
:203CC0007401F09022A2F0E51530E202D322E51530E22C7F04F171B106FF54F06440701BF2
:203CE00075F0E5E55A1243C8EF540FF0B1064480F0E55A12443B12199980047F01D1EA908E
:203D00000449E024FF2275F0E5E55A900001122562E022900427126143C2EBE5146002C142
:203D2000C6E51530E202C3221250175005C24B124BD81252F2E5D120E0FBE4F510C22E904A
:203D40000428E05407C39403E494005022900430E0FF90042CE02FFFE433FED3EF9440EEAE
:203D6000648094804009431504A22D92EDD32290042D12256ECFE9CF8A118F12900430E096
:203D8000F516AE111259D690042912256E8B1C8A1D891E90042CE0F51F900427E0FCA3E0F3
:203DA000FD54606032900431E0FF12570AD1D01221A8FB7A00900425E0FEA3E0FF7C007DA6
:203DC00017122244EF2BFFEA3EFEEF2414FBE43EFA7D027F01C1AD900427A3E0540790043D
:203DE00014F075140890042912256E12575990042CE0FFAD16125777900414E06403702940
:203E00007B01FDFF1257AAD1D0F1AF5007D1D074011221EEF1D34414D1CE1221A82428FB6B
:203E2000E433FA7D03E4FFC1AD900414E0640270251257A6D1D0F1AF4007D1D074FF12213F
:203E4000EEF1D3440AD1CE1221A82414FBE433FA7D027F0180571257A5D1D0F1AF4007D167
:203E6000D074FF1221EEE4F5FFD1DE44104E7F0560027F0AEF547FFFE5D254804FF5D2E400
:203E8000F5FF43D280D1D01221A8FD7C00D1DE44104E7E0060047F0A80027F05EF25E0FFEF
:203EA000EE33FEEF2DFBEE3CFA7D017F011257E6D1DEFF1255334006A22D92EDC322A22DCB
:203EC00092EDD2EBD322A22D92EDD2EBC322F5D290042912256EE92407F9E43AFA229004BD
:203EE00027E0FEA3E022EFF07F01EF600C9002B47150E4FD124C1C8009F17A125112E4337C
:203F0000FF227F0122E4FFD1EAEF60437B017A0279B6F1509002B6E0C394C040EF7B017AE2
:203F20000279B8F15012444A5FFFA3E05FFFA3E05FF460E990121DE030E0047F01D1EAE43D
:203F400090121CF07B017A0279B6E0FD12196C2290043F1225A5C244E4FFD1EABF010B9048
:203F6000043F12256E12515692447F01D1EAA24422C2AFEFF45215D2AF221258A2EF7004BA
:203F8000715F80F622E4FF75F0E5EFB10B60037F00220FEFB403F07F01227F02F171900221
:203FA000B4E09002BCF09002B404F0C39402221221A8FF900430E0FD90042CE02DFDE4331E
:203FC000FCED2401FDE43CFCD3EF9DEC6480F874809822E4F5FFE5D25480229002B5E0FD3C
:203FE0000219C1FF75F0E5122562E02275F0E59000050225627A2C796F7F0312614C7A2C24
:2040000079787D017F081219DA7B017A2C79757D027F0931B77B017A2C79737D027F0B315E
:20402000B7902C731237DD6006BEFF1BBFFF18902C78E024FD600304700431BA8009902C20
:2040400073E4F0A37440F0902C78E024FD6003047008902C707403F08006902C707402F013
:20406000902C6FE012261D408304408E14409615409E1740AD3040B53440BD3640C53700A2
:204080000040A975FF01534FEF854FFD804075FF015350EF800E75FF015350DF800675FF1A
:2040A0000153507F8550C9802531C4802175FF015352FE801675FF015352EF800E75FF014A
:2040C0005352BF800675FF0153527F8552CB122FF57F1131A9E4FF1238A3122E1D902C6DC5
:2040E0007402F0902C71E0247F600904701631AF740A8007122FBE31AF7458F0902C707497
:2041000003F031BA902C72E0F4600221A6902C75E0FEA3E0FF64104E7006902C72740EF02D
:20412000EF64204E7006902C72740FF0EF64404E7006902C727410F0EF64804E7006902C5B
:20414000727411F0E4B5070AEEB40106902C727412F0E4B5070AEEB40206902C727413F088
:20416000E4B5070AEEB40406902C727414F0E4B5070AEEB40806902C727415F0E4B5070A98
:20418000EEB41006902C727416F0E4B5070AEEB42006902C727417F0E4B5070AEEB4400612
:2041A000902C727418F0022F9FEF4420F5FE227F1031A9902C6D220219DA902C737401F0E0
:2041C000A3E4F02275FF015351DF8551CA22E075F002A42481F9740F35F07B02FEAF01E44C
:2041E000FCFD022F52FEAF01E4FDAB05E4FCFD902F35EBF0022F03FEAF017B007A00798286
:20420000902ECB7404F0902EC85125C007902EC812256E902ECBE0FF902D70E4F0A3EFF0D4
:20422000D0070234871225A5E4FCFD22902E515125C007902E5112256E902E545143D00792
:204240000230EEE0FFA3E0902CE9CFF0A3EFF022902E585125C007902E5812256E902E5BAD
:2042600051E7D007902B44122525902B481225A5E4902B6BF0D3902B4CE0941E902B4BE0A9
:2042800094004001227B017A2B794D902B4BE0FFA3E0902D70CFF0A3EFF0902B441224FD38
:2042A000123487902B4812256EE94A600F902B6BE0F5827583001221C1FF80027F00902BC3
:2042C0006BE0244DF582E4342BF583E06F6002C322902B6BE004FFF0D3902B4CE09F902B4D
:2042E0004BE0940050BD22E0FFA3E0902B4BCFF0A3EFF022E4FF022F937107122EC2EF6095
:20430000051234F380F52275FF02E5E430E10675E40675E40322E4F97D0CAC0109EC902DD0
:204320007293FC0FEFAA0670010E14F5828A83ECF0DDE77F03228F828E83E4F0A37404F072
:20434000714B7436F0714BA3E4F0228F828E83A3A322123FF571AF1219C671C29002B3E079
:2043600064017F0060027F01121A2A121A2F12199E915A7A0279B6121967914AFE4FFDA30D
:20438000E0FC4DFDA3E0FB4D600BEE5FFFEC5FFFEB5FF47003123F0590121CE0FF5403240C
:2043A000B6F582E43402F583E06F9002B1F022E4FF75F0E5EF71C8E4F00FEFB403F3E4F5F0
:2043C0005A22E4F558C23A22900001022562900447EF9152FEFD75F0E5ED123D0BFC700C47
:2043E000900448E0B4FF02EDF00F8006EC30E0027E010DEDB403DF900447E06401600DEF51
:20440000C394025007EE7004A374FFF0900448E0FFC39403501EEF913B7DE5E4FF12195D79
:20442000900447E04410FFA3E0FE75F0E571C8EFF0EE80077B007A0079002275F0E5A42474
:2044400001F9740035F0FA7B01229002B6E0FFA3E022F0A374FFF0E4FF227B017A12791CCD
:20446000902ECF0225A590121CE07010914A4FFFA3E04FFFA3E04F7003D38001C32275FFD9
:204480000275E40475E40175E4022275FF0275E404E4F5E422900433B17790121DE0543022
:2044A0006006D1E75002C322900433E0B4040BA391FB9004337403F08025900433E064052B
:2044C000701890121DE090043430E50691FB7F1F8004B103E4FFB1718005900434B10390DA
:2044E0000433E09002B2F0900435E0901222F0F1559002BDEEF0A3EFF0D322E0FB7D017F52
:20450000018006E0FB7D01E4FFEB600875FF0153CDFD800675FF0143CD02ED600553FBDF67
:20452000800343FB20EF600775FF0243E1402275FF0253E1BF2290121DE07B027D0130E50E
:20454000087F01B1097F1F8006E4FFB109E4FFB1717F0143FB1075FF0243E640EF600D75D5
:20456000FF02E5E120E7FB43FB0D800343FB0E80FE75FF028FE322EFF0A3EDF0A3EBF022D1
:20458000902F3BEEF0A3B1777FFFA3E0F9E9C3940C5022E9B1B6E0FCA3E04C7015AF019000
:2045A0002F3BE0FCD1F1A3E0902F3AF0D140E904FF220980D82275F007A4244AF582E434D8
:2045C0002AF58322900000E06067E014F0E4F559E559C3940C50EDE559B1B6E0FEA3E04E98
:2045E000604BE559B1B6D1F87043E559D132E0FF600AF46007E559D132E014F0E559D132A4
:20460000E06012E559D194E0FEA3E0FFE559B1B6EEF0A3EFF0D183E0FEA3E04E600CD1837D
:20462000E0FEA3E0AA06F91226431234F30559809F2275F007A42450F582E4342AF5832246
:20464000902F37ECF0A3EDF0AA07AF03EF70010FEF75F00AA4FFAEF0EAD194EEF0A3EFF0E8
:20466000EAB1B6EEF0A3EFF0902F3AE0FFEAD132EFF0902F37E0FEA3E0FFEAD185EEF0A3CE
:20468000EFF022E55975F007A4244EF582E4342AF58322EF75F007A4244CF582E4342AF5E9
:2046A0008322D1CD500ED193E4F0A3F0EFB1B6E4F0A3F00EAF0622D1CD500FD193D1EA6070
:2046C00009EFB1B6ECF0A3EDF00EAF0622E4FE1FEFC3940C227E1A7FE37BFF7D64902F3F72
:2046E0007402F0A180A171A22E22E0FCA3E0FD4C22A3E0FDA3E0FB2274FFF5F01222AB45C9
:20470000F0221221A8FFD1A2E4022210902E5D1225A5902E5D12256EF102AE04AF05902E54
:2047200062E0FDA3E0FBF147902E5DF14EF13AB4FF04E4122210F13AFF22902E5D12256E14
:204740000221A8E4FB7D01E4902F3FF0A18012256EEF022210A2AFE433FFC2AF902A9EE066
:20476000FCA3E0FBAA04EF24FF92AFAE02AF0322903032EEF0A3EFF0F155903032F1A450CB
:2047800009C3EF9DFFEE9CFE8019903032E0FCA3E0F4FDECF4FCED2401FDE43CFCED2FFF3D
:2047A000EC3EFE22E0FCA3E0FDD39FEC9E229002BDE0FEA3E0FFF170D3EF94C8EE94002263
:2047C0009002B1E064AA2411FFF022AE07F1C0EE04FEEF8EF084AFF02230420C902645E001
:2047E0007006FF121A39C2421249FB0219CB9002BAE0FCA3E04C700A9002BAEEF0A3EFF082
:20480000D322C3229002BA1237DD6009CAEECAC9EFC912264322E4F553F554F555F55675C4
:20482000FF0185FD4F75FF0185C95075FF0185CA5175FF0185CB5222EF113FF00200009085
:204840001221F090306A22901221E0FFF4600590306AEFF074FF113FE0FF22901221E0FE80
:20486000640690306A6004EFF08008EEF090122174FFF090306AE0FF22EFB40109D2AD7509
:20488000FF0143AE4022C2AD75FF0153AEBF2275C80122E5C85402FF75C80222E5C8540437
:2048A000FF22E5C85401FF2275FF02D2ADD2BD75FF02758E7175570975FF02E58E546F4481
:2048C00080F58E22C0E0C0F0C083C082C0D075D008C0FF75FF02E58E30E42875FF02E58E34
:2048E00054EF4410F58E900000E004F0E55730E002052DE557700A755709902A9E311D8009
:2049000002155775FF02E58530E40431290558D0FFD0D0D082D083D0F0D0E032E475F0017A
:204920000222AB75FF0253857F75FF0243851022AB07AA063123ED4C70050DBD00010CD35D
:20494000ED94FFEC9403500AEDF586EC4430F5858052D3ED94FCEC940F5017EDAE04780287
:20496000CEC313CE13D8F9AC06F586EC4434F5858032D3ED94F0EC943F5016ECC4F854F0CF
:20498000C868FCEDC4540F48F586EC4438F5858013EDAE047806CEC313CE13D8F9F586EEC3
:2049A000443CF58590303031BDD23AE4F55875FF0243854075FF02438580D23922AF03EADD
:2049C000F0A3EFF0223123C239E4F558C23A2230390D3123E4F558D23A75FF0243858022BE
:2049E000303A10E558600C15589030301237DD600231F422AA06A907022643302E245125A5
:204A0000FF900424E0FEEFC39E400AEF9ED394024010C22E22900424E0F42FD394014002AA
:204A2000C22E22C2AD902A9EE0A3E022C0E0C0F0C083C082C0D075D008C0FFF1838F18E5A7
:204A40001864027053E51424F860432407600261819004251246F8702BAB1CAA1DA91E12E3
:204A60005759AD16AF1F1257771257A575FF00E5D254804414F5D243FA0475FF0071AA75A4
:204A80001408618143FA0475FF0071AA6181C2EB7514004315046181E5186401600261814C
:204AA000125E4C40026181E510702A851282851183E090044BF0E0FF64556004EFB4540AA9
:204AC000D22E5125900424F0615275100275FF0075D9086181E510640270567196E0900436
:204AE0004BF0125DA81256F6900413EFF090044BE0FFD394094025900413E0D39402400CB1
:204B0000EFD394AA7F0040027F01800D90044BE0D394407F0040027F01EF6004718E80321C
:204B200090044BE0FFF51675FF008FD97510038050E5106403704A718E75FF00900413E068
:204B4000C39403E5D350055402FF80035401FFEF600471B1802BC24B71D875FF001252F57F
:204B6000E5D120E0FBC2EB431502751000900413E0B4030715167196E516F09002B5E51654
:204B8000F0D0FFD0D0D082D083D0F0D0E032302E04C22EB18122E5122407F582E43511F511
:204BA0008322919543FA04E4F5FF53D1FD43D10122C24B71D81252F2E5D120E0FBE4F5FF84
:204BC00075D901900413E07F00B403027F0171A2D24B71D8E4F5102290306BE5F4F0E0549B
:204BE0007FF5F47F827E00F1481237D25005E5FC20E6F6304B0890306BE04480F5F4F144D8
:204C00001237D25005E5FC20E6F675FF01E5D520E702C322E5F4D330E601C322900439EEC7
:204C2000F0A3EFF0E514706C12500F5004C24B71D8900439E0FEA3E08E11F512AE11AF12BE
:204C40007DAA125784E4F5FF75D901F510E5155421602AE51530E504E4FF9195E490043B4C
:204C6000F090043BE004F0D15BEF600990043BE0C3941040EC7F02121A935315DE900413AE
:204C8000E07F00B403027F0171A2D24B71D8D2EBA22D92ED2275FF01E5D530E602C322E4C6
:204CA000F5FF439A80EF1261B6E4F5FF539A7FD322902F7DEFF0A31252DFE9F075FF01F112
:204CC00083EF64016002C322E5F430E602C3227FE87E03D13EB17AF14C400122C24B71D8C8
:204CE000902F7DE0FF919553F4DFD24B71D87F787E00B12F75FF0153E4BFE5E430E7FB123A
:204D00005DF97F8A125B8930E6061252A3E4800875FF011252A3E5D912221075FF0143E495
:204D200040F1EE400343F420F14C400122D322CDEFCDCCEECC125A24AB94EF4B125A30CBA6
:204D4000EFCBFAE59130E71E125A27A994E9F582EF4582FFEB2DF582EA3CF583C3EF958219
:204D6000E5F0958340DDE59120E708CEECCECFEDCFF130227FC87E00D13E75FF03439180AF
:204D800022C23BE4902FE8F0C23CA3F0A3F075FF01E5D520E702C322C24CF162203B02C1B9
:204DA0003053F4DF902FE8E0FF919575FF0143D810303C0543F440800353F4BFE4F5FF53B5
:204DC000F5F0902FE9E0FAA3E0FBEA42F5EBF5F6D24CF162B174E4F5FFE59320E6051237BD
:204DE000D240F3303C56E5F430E3047D288010E5F430E2047D288007E5F430E1027D28F12A
:204E00003D7F28B1761237D240FB7F78B1761237D25029F1E050F7125DD2EFC39D50EFF1A7
:204E2000E050EBE5F720E5E6C24CF162F13D80DE53F4BFF1EE400543F420F1E7D32275FFE1
:204E400003D3EF9402EE9400400874FE2FFF74FF3EFEEFF592EE540FF59122E4902F75F067
:204E6000A304F0E4902F78F0E5FA30E1FB75FF01E5D530E7037F0022E4F5FF75E508F1E7A9
:204E8000E5D530E61A75FF01902F77E5DAF0E4F5DA75FF01E5D630E3FB902F787401F075CC
:204EA000FF03759B0475FC4175FF03E59B30E7FBE4FB75FF038B9512369FFF125A380BEB2B
:204EC000B403EF75FF03759580E4F5FF758EC8125A7475FF0153D5FBF13D7F14B176F13403
:204EE00075FF0143D504902F78E07006F13DB174F1347B017A2F7976125B92902F76E09064
:204F00002F757006E04404FF8002E0FF902F75EFF090120EE0B4010675FF0143D81075FF7D
:204F200001902F77E0F5DA902F75E0FF227F3FFED13EB17A75FF03E59120E7FB2275FF03D8
:204F4000E4F591227FE87E03F1AEA17AE5F730E50FE5F754C070051237D240F0F13DC32260
:204F6000D322AFF4EF547FF5F4304C05EF4480F5F475FF01E5D520E702C322E5F4D330E6F2
:204F800001C3227FFAB176E5FC30E6051237D240F6E5FC30E6037F032275FF01E5D530E65B
:204FA000037F0222E5D57F0030E7027F0122902F6DEEF0A3EFF07B017A2F796F125A0F50F3
:204FC00014902F6FE0FEA3E0FF902F6EE09F902F6DE09E400A902F6DE0FEA3E0FFD13E22D2
:204FE00075FF01E5E4332275FF0153D8EF2290120EE0D394012212501750051250084003D8
:20500000302E03D38001C322E5F754E024FF22C2EBA2ED922DC2EDE5F4C330E701D32290BE
:205020000445EFF0C24C124F62D23B900445E0902FE8F0D23CA3E4F0A3740DF0124D8EE4B0
:20504000900446F01117503E900446E07038E5F754C060F0119D119D900446EFF0BF5512F3
:20506000119D90044651EB6F90044670147402F080D2900446E0B454057433F080C69004AF
:20508000467401F080BE900446E0B40207C24B124BD88000124D81900446E0FF22E5F72037
:2050A000E008E5F754C070F5FF2243F701AFF9225315FEE51530E5057F01124C95124E5BE5
:2050C000EF70FA7F02121A937F01111F90044CEFF0BF0202801390044CE0B43311E4F07F67
:2050E00001111FBF020D90044C7401F08005E490044CF090044CE0700B11175005C24B125C
:205100004BD8310B90044CE024FF2231397F08021A93E5147021110F5005C24B124BD83119
:205120000B51F2E5D120E0FB4315205315FEE4F510A22D92EDD322C322E5FA30E1FB75FC25
:205140008075FF0153D5EFE4F5FC75FC40124F3DE5FC20E6FB22902CED51DFE9F0902CF3BA
:2051600012253100000001902CF77401F0F5FFE5D554C0700411175002C322E4F5FF539658
:205180007F75FF0175D504124F2D75FF0143D508E4F5FF5394FBF5FF53847FF5FF7598FFA6
:2051A000902CF1E5F4F075F49C75FF01A3E5E4F075E4257B017A2C79F751AF902CF7E0649C
:2051C0000160024182F5FF902CF07414F0902CF31236ADFF78011224D0902CF3122525E57F
:2051E000A730E1FB43A702902CF31236ADFFE5A730E005E47B018002E4FBFAF9F8EF4BFFE7
:20520000EE4AFEED49FDEC48FC902CF3122525902CF0E014F070B6902CF31236ADFF781009
:205220001224BD7B6D7A4E79C67841122374EF2439FFEE343012352AE4FBFA7901F812239C
:20524000FFEE547FFEE4FDFC51FE902CF31236ADFFEB6FFFEA6EFEE8CDEFCDCCEECCECFF30
:20526000902CED51A6EF122210902CED51A6900001ED12222290120FE030E606E4F5FF75ED
:20528000968075FF01E4F5D5902CF1E0F5F475FF01A3E0F5E49198902CF7E0B40103D380C7
:2052A00001C322902F7EE0FBA3E0FAA3E0F922902FE551DFE9F07F017C127D01E4FEED2E9F
:2052C000F582E43CF583E02FFF0EEEB412F0901213E06F6009902FE551A6E412221022EBC2
:2052E000F0A3EAF0A322E4F5142112EFF090121CE022E4F5FFE5D154FE4402F5D122C8ECFB
:20530000C8C9EDC9CAEECACBEFCB22902F79EDF0901211E0FEF46006A3E0FDB4FF0C902F1F
:205320007B7418F0A37413F08008902F7BEEF0A3EDF01221A8640160028165902F79E0FE9E
:2053400064086004EEB40408902F7A7428F08006902F7A743AF0EF1236A0FF12249EE4918E
:2053600074EF24D8FFEE343FFEED3493FDEC3416FC7B007A80790378001218B651FE902F36
:205380007CE0FF902F7BE0C3916DE4FCFD122374ECC0E0EDC0E0EEC0E0EFC0E0902F7C914F
:2053A000669174D0E0FBD0E0FAD0E0F9D0E0F8EB2FFBEA3EFAE93DF9E83CF8902F7A91663A
:2053C000122374EF2454FFEE340B12352AE47BA87A16F9F81218B6CBEFCB902F79E01460A7
:2053E0005F14601B24FE600C24FC7079E4F5FF75CE318006E4F5FF75CE21F5FF8BCF22E4C6
:20540000FAE4F5FFEA2440F5CEE4F5FFEAFFC37407916D74432FF58274183EF583E4917C1C
:2054200013C39DF5CFE4F5FFEA2448F5CEE4F5FFEA901843917C132DF5CF0AEAB408C222F2
:20544000E4F5FF75CE01F5FF8BCFF5FF75CE0EF5FFEB25E0F5CFE4F5FF75CE0FF5FFEB7577
:20546000F003A4F5CF22E0FFE4FCFDFE229FFFE49400FE227B64FAF9F80223749325E0FDA5
:20548000E433FCEB75F010A4FFAEF0122256CDEFCDEBFFE4C313EF22E4F5FF7584E6F5FFE5
:2054A000439404F5FF75981422E51520E50CC24B124BD851F2E5D120E0FBE4F510229004FA
:2054C00015E0FDFFC3740E916DEFC4F8540FC868FFEEC454F048FEE51754F0C39FEE123F3E
:2054E000CC7F005002AF0522EF30E303AF1322AD1B202F04EE30E00BE517C394F0502091E8
:20550000BE8018E51A6006FDE4F51A8012E517C394F0500BE517540FFF6004B122AD07AFB8
:205520000522B19CFFC3940E40027F0DEF902CC293FF224315015315DF91E8B14B4004E467
:20554000F514225315FB124BA4D322900437EFF0900414E024FD6011047007B1927404F0DD
:205560008012B1927408F0800BE4900438F09004367402F07F01121A93900438E0FF900411
:2055800036E0FDA3E0FBE4902E6EF01236BF50E9D3229004387401F090043622E517C45414
:2055A0000FFEEF902CE0932E22E517C394F0501F5317F0B19CFE740FC39F4005EE940E401F
:2055C0000543170D8003EF4217E517540FFF227F0022E4F5FF75933F75FF03759A40919865
:2055E000E4F5FF759C93F5FF75A1A3F5FF758531F5FF758628E5FA54304480F5FA75FF01C1
:2056000075E74A75FF0275DF4975FF0143D30475FF0153D367E4F5FF53E6BF75FF0175D8AE
:2056200025F5FF75B503F5FF75B215F5FF75BA02F5FF75AFB3F5FF75CD0AF5FF75CB08F593
:20564000FF75CA12F5FF75BF0EF5FF75CC96F5FFF5BDF5FF75C281F5FF75AEE1F5FF75DA6C
:2056600055F5FF75F580F5FF75E903F5FF75E933F5FF75972A75FF01759B42759CA4759D65
:2056800029759E48759F2475A11275A312759AF820480CF5FF43968090120FE04440F0220D
:2056A000AF14EFC36001D322EFC3940E5005900415EFF022E517540FFF22E51754F0C454F4
:2056C0000F2FFFC3941040027F0FEF902CD093FF227E10EE60091EEE902CD093B507F4EE79
:2056E000C3940E40027E0DEE902CC293FF22C2AFEF4215D2AF22EF24FE600C24FE6005807A
:20570000007F01227F02227F032290043CF165751401E4FBFDFFF1AA7B017A047916F159A7
:20572000E4FD7F02F177123FD3440AF5D29004167455F090043CE0900417F090041474029A
:20574000F090043EE090042530E507E4F0A3743CF022E4F0A374F0F022E4F5FFE9F16EEAA2
:20576000540F42D622EFF0A3ECF0A3EDF022F5D7E4F5FF53D6F022E4F5FF8FD4F5FFCFEDC2
:20578000CF8FD522E4F5FF75D102E5D120E0FBE4F5D1F5FFEFF16EEE540F42D6E4F5FFCFE7
:2057A000EDCF8FD422E4FB7D01FFE4F5FF75D102E5D120E0FBE4F5FFF5D1EF6008E4F5FFAE
:2057C00043D2808006E4F5FF53D27FEB6006E4F5FF43D104ED6006E4F5FF43D108229004F4
:2057E00025E0A3E0FF22900442EFF0ED24FE60191460272402703CEB2402FFE43AFE7C00AE
:205800007D501222447D60801F12585DC333CE33CED8F9FF7C007D28800E115DC333CE3357
:20582000CED8F9FF7C007D64122256900443EEF0A3EFF0900442E01168F583C083C082126E
:205840002519900444E02401FF900443E03400FEE4FCFD122359D082D083022525EB2401D9
:20586000FFE43AFEEF78032225E025E02418F582E4340422EF1168F5831224FD0224E3E486
:20588000900418119BE4FFFEFDFC90041C122525E4FFFEFDFC900420022525FFFEFDFC02F8
:2058A0002525E4FF75F0E5EF123D0B54F0FEBE40037F00220FEFB403EB7F0122E4022210EA
:2058C0001221A8540F02221080F67F017E009017FCE4935EFE7401935F4E24FFB32290002F
:2058E00001740193B40007E493B41802C322D322EF7011ED600775FF0143AE012275FF0103
:2059000053AEFE22EFB40110ED600775FF0143AE022275FF0153AEFD2275FF02E5E630E2EC
:20592000037F0322E5E630E3037F0022E5E630E1037F0422E5E67F0530E0027F0122EF6068
:205940000775FF0253E6BF2275FF0243E64022EF14600F146014240270188B8075FF018DFA
:20596000FD228B9075FF018DC9228BA075FF018DCA22AF038FB075FF01AF058FCB22902E93
:20598000651225A5EF1460111460182402701E31B8E58031BEE5FD801C31B8E59031BEE525
:2059A000C9801231B8E5A031BEE5CA800831B8E5B031BEE5CB022210902E6802256E1222B8
:2059C0001075FF01902E6502256EE4F5FFAF9122E4F5FFAF9222E4F5FFEFF5D8E4F5FF5356
:2059E000D60FEE540FC4F854F0C8E4C4540F4842D622E4F5FF8FD422E4F5FFE5D1540133A9
:205A0000333354F8FFE4F5FFE5D354074FFF225124AD94EF4D51308FF012233AE591C330B0
:205A2000E701D32275FF03AF93EF75F010A4FF2224FBFFE5F034FF22902F7112252575FF5F
:205A400001902F71A3E0FDA3A3E4FFFEE4FC78101224BD8FE1902F71A3A3E0FEA3E4FFE4E5
:205A6000FDFC78081224BD8FE2902F71A3A3A3E0FF8FE322E4F5FF75C2E17F1E718930E71F
:205A800007E4F5FF75C2A122E4F5FF75C28122902BEF122525E4F5FF75BB0575BB8575FF3F
:205AA0000175D502204605124F2D517475FF0143D520304602615BE4F5FF538EF7438E0772
:205AC0007D04E4F5FF8DBCF5FF43B102E5B130E2FBE4F5FFAFDFEFFEACDEECFBEBFFED25D7
:205AE000E024EDF582E4342BF583EEF0A3EFF0E4F5FFF5FF53B1FD0DEDB40CC6902BEF121A
:205B000036ADFF78091224BDA3EEF0A3EFF0E4FDED25E024F7F582E4342BF583E0C313FA5C
:205B2000A3E013FB7175E0C313FEA3E0132BFFEE3AFE7175EEF0A3EFF0ED240490120DF05A
:205B4000EDC394075015CFEDCF0DEF71767182902BF4E09F902BF3E09E50B5E4F5FF758EFA
:205B6000C8F5FF90120DE0F5BCE4F5FF75BB8075FF01F5D522ED25E024F5F582E4342BF586
:205B80008322E0FEA3E0FFC322FE124D2F90120FE022C24575FF03759B1F75FF0390120F07
:205BA000E0FF20E71BE59A540FC394024012EF4480F0E4F5FF75C2A143FC0475FF03D24533
:205BC000E5FC30E609E59A540FC3940540CCE5FC30E611E412221075FC80F5FC75FC40E5D3
:205BE000FC20E6FB30450312367D22EF30E00E43F401E4F5FF43A404F5FF759624EF30E11E
:205C00000E43F401E4F5FF43A408F5FF759624EF30E20943F402E4F5FF75961EEF30E30905
:205C200043F404E4F5FF75961075FF01EF5403600475D7122275D72D22CCEFCCCFEDCF7476
:205C4000017E00C8EFC8088005C333CE33CED8F9FFCDECCDEF5D601B30471875FF0175DC82
:205C6000AD75FF0175DDCDE4F5FF759A74F5FF7594842275FF0175DC5375FF0175DD33E4EE
:205C8000F5FF759A14F5FF7594042291AA53DB7F75FF0175D5027F14124D76124F3491AAE9
:205CA00043DB8075FF01E4F5D52275FF01438E1075FF012275FF0175E46575FF0175D647DA
:205CC00022902F40EFF0E4A312350878011224BD902F40E0FBB15BF583122525901210E036
:205CE000FF64806075EFC3947F503BEBB15BF583C083C0821236ADFFEEC0E0EFC0E09012F5
:205D000010E075F004A4AEF0FBCAEECAEA3395E0F9F8D0E0FFD0E0FEC3EF9BFFEE9AFEEDCC
:205D200099FDEC98802C902F40E0B15BF583C083C082B167901210E0F40475F004A4FFAE59
:205D4000F0EE3395E0FDFCEB2FFFEA3EFEE93DFDE83CFCD082D0831225252225E025E024F1
:205D600001F582E4341222E0F8A3E0F9A3E0FAA3E0FB2275FF01E5D530E602C32253FACFA6
:205D8000EFB4080543FA308012EFB4040543FA208009EFB4020543FA108000D322E5F45429
:205DA00018131313541FFF22E5F75406FFBF06037F0822E5F75406FFBF04037F0422E5F7DC
:205DC0005406FFBF02037F02227F012275FF018FDA22B1F9AFD922E4FFE5F754C060028058
:205DE000F175FF01E5D530E30F124FE050F3B1D2EF60EE124FE050E92275FF01E4F5EA75D4
:205E0000EAFF2275FF01E5D520E602C322E5FA540360FA75FF018FC3D322CEEFCE75FF010F
:205E2000E5D520E602C32243FA04E4FDEDC39E50077F55D1030D80F4E5FA543070047F0F66
:205E400080027FF0D103D322E5F71322E5F754C024FF229024FCE04402F022C0FFD0FF329A
:205E6000C0E0C0F0C083C082C0D075D000C000C001C002C003C004C005C006C007C0FF128B
:205E80001AD4D0FFD007D006D005D004D003D002D001D000D0D0D082D083D0F0D0E032C002
:205EA000FFD0FF32C0FFD0FF32C0FFD0FF32903064EFF0E4A3F0902BB4E06024D1F112320F
:205EC000E17008D1E67E777D00800AD1FB5011D1E67EFF7D017C00122F03E433903065F0EB
:205EE000903065E0FF22903064E0902F35F07FFF22E4FFFE7D02FC902B9522902B951224A0
:205F0000FDE4FBFA7904F8D30224ACF0FDE4FFE4F5FFED540F4FF5DB22E4F5FFEF25E0F597
:205F2000DCE4F5FFEDF5DDE4F5FFECF5DDE4F5FF43DB102290302A1225A5E4F5FFE5DB20B2
:205F4000E4FBE4F5FFF5DCFDE4F5FF90302A12256E75F002EDA4F58285F083122302AEF019
:205F6000F5DDE4F5FFEEF5DD0DEDB404DBE4F5FF43DB1022E4F5FFE5DBC330E401D322900D
:205F80002F26F1BDE58F20E0FBF1DB538FF075FF01E4FF902F26F1B41221C1F5930FEFB4E1
:205FA00010F1E4FF902F29F1B41221C1F5940FEFB410F12212256E8F82758300221225A572
:205FC00075FF012290302DF1BDE4FF90302DF1B4E5931222220FEFB410F12275FF01538F20
:205FE0000675FF0122EFB4010302613775FF01E58F54F04406F58F2275FF01E58F54F6442F
:2060000008F58F2275FF01E58F5408FF22EFB4010775FF0143AE202275FF0153AEDF22752D
:20602000FF01E58F5401FF22902EC312256E902DD81225A5902EC312256E902DDB1225A545
:206040007B017A227911902DD5125FBDE58F20E0FB125FDB538FF075FF017E10902DD811A8
:20606000921221C1F593EE70F37E10902DD511921221C1F594EE70F37F01125FE5111FEF3B
:2060800070FB7E10902DDB1192E593122222EE70F32212256E1E8E8275830022EFB40107F3
:2060A00075FF014391202275FF015391DF22902DDE125FBDE58F20E0FB125FDBE58F54F0BF
:2060C0004402F58F75FF017F10902DDE12256E1F8F827583001221C1F594902DE4125FB447
:2060E000E4122222EF70E2312EEA540FFD902DE412256EEAC4F854F0C8E9C4540F4854F0E8
:206100004DF592312EE9F59875FF01902DE412256EE9F59675FF0175991075FF0175971083
:2061200075FF014391203137E58F20E0FB2275FF01902DE102256E75FF01E58F54F64401DD
:20614000F58F22EEF0A3EFF0A30225A57B017D011219DA7B0122E0FDA3E0902DEDCDF0A3C3
:20616000EDF0221224FD78101224BDE42212256EE924042274FFF5F01222C145F022900060
:20618000010221C1902E840225A5F9E43AFAEE022210E004F0E0C3940422902DFCE4F0A378
:2061A000221225A50221A8122DBE7F05022E9D8B828A8302264733333354F8F5F422F090CF
:2061C0002C6AE0FFF422FFFFFFFFFFFFFFFFFFFFFFFFFFFFFFFFFFFFFFFFFFFFFFFFFFFF4E
:2061E000FFFFFFFFFFFFFFFFFFFFFFFFFFFFFFFFFFFFFFFFFFFFFFFFFFFFFFFFFFFFFFFFBF
:20620000FFFFFFFFFFFFFFFFFFFFFFFFFFFFFFFFFFFFFFFFFFFFFFFFFFFFFFFFFFFFFFFF9E
:20622000FFFFFFFFFFFFFFFFFFFFFFFFFFFFFFFFFFFFFFFFFFFFFFFFFFFFFFFFFFFFFFFF7E
:20624000FFFFFFFFFFFFFFFFFFFFFFFFFFFFFFFFFFFFFFFFFFFFFFFFFFFFFFFFFFFFFFFF5E
:207FA000FFFFFFFFFFFFFFFFFFFFFFFFFFFFFFFFFFFFFFFFFFFFFFFF7FC651686040000932
:207FC00000860260E42AFFFFFFFFFFFFFFFFFFFFFFFFFFFFFFFFFFFFFFFFFFFFFFFFFFFFC5
:207FE000FFFFFFFFFFFFFFFFFFFFFFFFFFFFFFFFFFFFFFFFFFFFFFFFFFFFFFFFFFFFFFFFA1
:208000009024FCE04401F022902E77E0FDA3E0902E54CDF0A3EDF012422C5009902E78E0A6
:208020002401FF80027F01221241EAE433FF22902ED7E0902ECBF00242060241DFE4FF90B6
:208040002FEB1225A5AE051DEE600C902FEB12D068EF12221080EE22022EC2902E7A1225E8
:20806000A5AE071FEE6013902E7D12CF9DFE902E7A12D068EE12221080E722902ECC122571
:20808000A512BF73902ECF12474E902ECC12256EE94A6009902ECC12D07912420022902FDE
:2080A000EE1225A57E007F041241EA902FEE12D07912C57A7404F012422C7F0122902E8196
:2080C0001225A5AE071FEE6013902E8412CF9DFE902E8112CF9D6E60EA7F01227F00229089
:2080E0002D2E1225A51225AE902D351225A5902D2E123ED3E4122210C2179022AAF0902D7E
:2081000035128E627B017A2279987F04115B20431312C2CE12618412CCDB6008128877448B
:208120008012221012887730E76E90121CE06036302A33128E3B2405128880540FFF64053B
:208140006056EF6401701F1221A830E719128E3B240A128880128E3512AD4412AF2B12C2C0
:20816000C812CCDF6032201B02E1BF201D2A128E3B240512888020E71F128E3B128E4AE9B2
:208180002401128880B40310128E3B128E4A12AF2B12CCD37002E1BF128E3B240612888046
:2081A000540FFF902296E07E00B402027E80EF4E902447F0128E1F4A604AE924B712888048
:2081C000FF7B017A2D793112B11A128E1F12AD581222D75407FF128E1F24B8128880540FA3
:2081E000FE902D31E0540FFDBD04047D4080027D00EE4DFEEF7F00B402027F80EE4F902285
:208200009DF0800690229D74FFF0128E3B2405128880FF540F24FE7002C1E5147002E18CEC
:2082200024FE7002E1B424046002E1BF902D3512887AFE740AD39E4002802AEF20E702C153
:2082400084902447E04440F0128E3B240A128880C4540F902D32F0600CE0FFD39404500517
:20826000740B9E400A902D2E123ED3E4022210128E3B240912888030E12730E324902D35EE
:2082800012887AFDEF240DFFE433FEC3ED9FEE123FCC500D128E3B240912888054F7122241
:2082A00010128E3B2409128880902D3530E35412B8D6128880128E3512AD441221A8FFC403
:2082C000540F29F9EE3AFAE9128E27C003C002C00112AF251225CE128E3B240A128880C42F
:2082E000540FFFFD7C00128E3B240BF9E43A12CF93C4540FFE902D3512887AC39FC39E24FC
:20830000F3802A12B8D6128880128E3512AD44C003C002C00112AF251225CE128E3B240AF4
:2083200012888012D11812887A24F4C39F12B1112406129345128E3B240812888012BDA71B
:2083400060028167128E3B240A128880540FFF902D32E06F600261F4902297E06002A1E04D
:20836000128E3B2405128880902D2E30E60712887A440D800512887A4409122210128E3B6D
:20838000240BF9E43AFA7E0012AD4A12D10012B10D240812934512887730E702A1E0128E02
:2083A0003B240512888020E702A1E0128E3B240A128880C4540FFF128E3B12AD441221A8B3
:2083C000D394014002A1E0E9240112888064036002A1E0128E3B240A128880C4540FFF12A5
:2083E0008E3B12AD4412AF2B128E657B0112D093D218A1E0128E3B240A128880540F640F6B
:208400006002A1E0128E3B240512888030E608128877440412221012B6F5501B128E3B2479
:208420000A12888012D11812256E12B5E450081288774401122210128E3B2409128880FFBA
:2084400030E10712887744208009EF30E2081288774440122210128E3B240B12888012B13D
:208460001112B214EFA171128E3B240A128880FF540FFDEFC4540FFCEDC39C4002A17612C7
:208480008E3B12A27C12BDA36002A176128E3B240912888030E05E12B6F55009128877122F
:2084A000CFDA7405F0EC14902D35B5050512616D800712A278FAE9240112888012B111244C
:2084C00008129345ED6002A149128E3B240912888030E375128E3B240A128880128E3512BD
:2084E000AD441221A8540F7060E9240112888054186056804CED902D35700812616DF9E453
:208500003A800712A278FA12D10012B10D2408129345EC146D7032128E3B2409128880304A
:20852000E327128E3B240A128880128E3512AD441221A8540F7012E924011288805460603A
:20854000081288774404122210902297E060089022AAE07002A1E0128E3B24051288809008
:208560002D2E30E60712887A4414800512887A4410122210806A128E3B240A128880540F76
:20858000FD12B6F5505A128E3B240912888030E024ED2402540FFD128E3B240A128880C4C7
:2085A000540FFFEDC39F5038128E3B12A27C12BDA3702D8022EDC394024025128E3B240B11
:2085C000F9E43AFAED24FEFFE434FFFE12D08AFF90121CE0B5070912887712CFDA7401F068
:2085E000128E3B240412888012BDA76034128E1F4A7002E1BF128E1F12AF33126184902DD2
:208600003512256E12CCDF6002E1BF128E1F24B6128880FF128E3B24041288806F6002E140
:20862000BF12B6F54002E1BF128E3B240A128880FF540F128E1E4A7002E1BFE924BA1288DC
:2086400080FD128E3B24081288806D6002E1BF128E3B240912888030E018EFC4540F24FE8B
